:0300000002244F88
:10244F0075C7AA75C75575FD5A75C7AA75C755754E
:10245F00FDA5787FE4F6D8FD9000007FFF7E03E4B2
:0C246F00F0A3DFFCDEFA7581200224B629
:102215004D01B83F0C765E4D5B7B0E7F5F007363AF
:10000E00E4FEC292EF139291EFC313FFD2920EEE63
:03001E00B408EF34
:0100210022BC
:1031DE00C293EF44C0FF12000EAF0512000ED29341
:0131EE0022BE
:10306300C293EF44C0FF12000E9001EEE0D3940030
:1030730040161203F0FF12000E740129F9E43AFA24
:0B3083009001EEE014F080E1D29322F7
:0C324600C293EF4488FF12000ED29322C6
:10315700C2937F0112000ED293C2937F4012000EDA
:08316700D2937F0712324622C9
:042225004101E4008F
:102F56009001E4E06032E4F0A3E0FDE4FF1231DE2C
:102F66009001E6E0FD7F021231DE9001E7E0FD7F91
:102F7600041231DE9001E8E0FD7F061231DE900199
:092F8600E9E0FD7F081231DE22B2
:0C2229004101AA004101B7004101AE00D4
:1031B6009001AB7401F0A37401F0A374E5F07F01F4
:0431C600123200229F
:1030ED009001ABE0FBA3E0FAA3E0F98F82758300BA
:0B30FD00ED1204489001E47401F02281
:08213F00900199EEF0A3EFF00E
:102147007C037DE812046AEF7001FF74B82FF582F3
:10215700E43401F583E0FF9001ABE0FBA3E0FAA3D1
:10216700E0F9EF120436900199E0FEA3E0FF7C034B
:102177007DE812046A7E007F64CFCDCFCECCCE122D
:10218700046A74B82FF58274013EF583E0FF90016D
:10219700ABE0FBA3E0FAA3E0F9900001EF120448DB
:1021A700900199E0FEA3E0FF7C007D6412046A7E43
:1021B700007F0ACFCDCFCECCCE12046A74B82FF5EC
:1021C7008274013EF583E0FF9001ABE0FBA3E0FAE8
:1021D700A3E0F9900002EF120448900199E0FEA3F2
:1021E700E0FF7C007D0A12046A74B82DF582740141
:1021F7003CF583E0FF9001ABE0FBA3E0FAA3E0F935
:0D220700900003EF1204489001E47401F010
:0122140022A7
:1028CE00EF75F00A84FE7001FE74B82EF582E434C2
:1028DE0001F583E0FE9001ABE0FBA3E0FAA3E0F983
:1028EE00EE120436EF75F00A8474B825F0F582E422
:1028FE003401F583E0FF9001ABE0FBA3E0FAA3E027
:10290E00F9900001EF120448ED75F00A8424B8F531
:10291E0082E43401F583E0900002120448ED75F074
:10292E000A8474B825F0F582E43401F583E0900052
:0A293E00031204489001E47401F054
:01294800226C
:103200009001AAEFF0E49001B7F09001E404F022FD
:0C1CF60090020BEEF0A3EFF0AB05AA0487
:101D020090020BE0FEA3E0FF7C277D1012046AEF35
:101D12007001FF74B82FF582E43401F583E090017D
:101D2200AFF090020BE0FEA3E0FF7C037DE812041B
:101D32006A7E007F64CFCDCFCECCCE12046A74B857
:101D42002FF58274013EF583E09001B0F090020B12
:101D5200E0FEA3E0FF7C007D6412046A7E007F0A3D
:101D6200CFCDCFCECCCE12046A74B82FF5827401D7
:101D72003EF583E09001B1F090020BE0FEA3E0FF9C
:101D82007C007D0A12046A74B82DF58274013CF558
:101D920083E09001B2F07C037DE8AF03AE0212044F
:101DA2006AEF7001FF74B82FF582E43401F583E025
:101DB2009001B3F07C037DE8AF03AE0212046A7EA9
:101DC200007F64CFCDCFCECCCE12046A74B82FF58B
:101DD2008274013EF583E09001B4F07C007D64AF33
:101DE20003AE0212046A7E007F0ACFCDCFCECCCEE4
:101DF20012046A74B82FF58274013EF583E09001F3
:101E0200B5F0AE02AF037C007D0A12046A74B82DED
:101E1200F58274013CF583E09001B6F09001E47420
:021E220001F0CD
:011E2400229B
:0D322C00EF149001AEF09001E47401F02267
:101898009001AAE024FD7003021978046003021A7B
:1018A800659001B7E0FF70339001ABE0FBA3E0FA6D
:1018B800A3E0F91203F09001AFF0900001120409BF
:1018C8009001B0F09000021204099001B1F090006C
:1018D800031204099001B2F0021971EFB4033790B2
:1018E80001ABE0FBA3E0FAA3E0F9E41204369001AF
:1018F800ABE0FBA3E0FAA3E0F9900001E41204488E
:10190800900002E4120448900003E4120448900195
:10191800E47401F080539001B7E06406704B9001C5
:10192800AFE0FF9001ABE0FBA3E0FAA3E0F9EF1210
:1019380004369001B0E0FF9001ABE0FBA3E0FAA30E
:10194800E0F9900001EF1204489001B1E090000224
:101958001204489001B2E09000031204489001B7C5
:1019680074FFF09001E47401F09001B7E004F022F4
:101978009001B7E0FF70429001AFE0FE9001ABE04C
:10198800FBA3E0FAA3E0F9EE1204369001B0E0FE02
:101998009001ABE0FBA3E0FAA3E0F9900001EE129E
:1019A80004489001B1E09000021204489001B2E0AE
:1019B800900003120448021A5FEF64037047900115
:1019C800B3E0FF9001ABE0FBA3E0FAA3E0F9EF126C
:1019D80004369001B4E0FF9001ABE0FBA3E0FAA36A
:1019E800E0F9900001EF1204489001B5E090000280
:1019F8001204489001B6E09000031204489001E4F4
:101A08007401F080529001B7E06406704A9001AF0B
:101A1800E0FF9001ABE0FBA3E0FAA3E0F9EF1204CA
:101A2800369001B0E0FF9001ABE0FBA3E0FAA3E041
:101A3800F9900001EF1204489001B1E09000021201
:101A480004489001B2E09000031204489001E47445
:0E1A580001F0E49001B7F09001B7E004F02235
:102235004101D5004101D4004101D7004101D3003E
:102245004101DB004101D2004101D8004101DC0020
:042255004101DA0069
:10316F00E4FE9001D5E05F600C9001D4E05F600356
:07317F000E80027E02AF0684
:013186002226
:101E2500E49001D9F0208104E04401F0208007907E
:101E350001D9E04402F02090079001D9E04404F074
:101E45002083079001D9E04408F09001D3E01460A5
:101E55003C046003021F379001D6E0FF9001D9E0F2
:101E6500FE6F6007E49001D7F0801C9001D7E00475
:101E7500F0E0D3940240109001D37401F09001D8A2
:101E8500EEF0E49001D7F09001D6EEF0229001D467
:101E9500E0FF9001D8E0FE6F9001D5F09001D4EEFF
:101EA500F0E49001DCF0EE30E003E004F0EE30E128
:101EB500069001DCE004F0EE30E2069001DCE0047F
:101EC500F0EE30E3069001DCE004F09001D5E0602F
:101ED50019E49001DBF09001D2F09001DCE060059F
:101EE500120809803812000A80339001DBE004F003
:101EF5009001D2E070199001DBE0D39432401E903E
:101F050001D27401F0E49001DBF0120022800E9002
:101F150001DBE0D394144005E4F012326D9001D852
:101F2500E0FFA3E0FE6F600A9001D6EEF0E49001B9
:031F3500D3F022C4
:02225900C100C2
:01000A0022D3
:1026C400E490019AF09001E9E054F7F054FDF054DD
:1026D400FBF054EFF054FEF054DFF054BFF0E4FD8F
:1026E400FF1230ED9001F1E0C36480948050137DBB
:1026F400407F011230ED9001F1E0F40490019AF072
:10270400800FE4FD7F011230ED9001F1E090019A19
:10271400F090019AE075F00A8424B8F582E434015B
:10272400F583E0FD7F021230ED90019AE075F00A26
:102734008474B825F0F582E43401F583E0FD7F0369
:082744001230ED7F0212320099
:01274C00226A
:100809009001D8E0900198F09001DCE06401600368
:10081900020EFC9001EFE064016003020CF7900105
:1008290098E030E16C9001DAE030E165900166E032
:10083900700B7B05FA7D14FC7F01122BB4900164C7
:10084900E06402704C9001F0E004F0E0D3940440BD
:10085900037401F09001EF7401F0A3E0FB900193A0
:10086900F09001DA74FFF090016912064F00000060
:100879000090016D12064F000000009001711206F0
:100889004F00000000EBFF7E001212C87F021232F7
:1008990000900198E020E303020A659001DAE02064
:1008A900E303020A659001F0E07028900166E070A8
:1008B9000B7B05FA7D14FC7F01122BB49001F1E04A
:1008C90004F0E0D36480948540037405F01226C4D3
:1008D900020A659001F0E064017028900166E070F9
:1008E9000B7B05FA7D14FC7F01122BB4E4900166A1
:1008F900F09001F0E0FF7E001212C87F0212320070
:10090900020A659001F0E064027074900166E0707B
:100919000B7B05FA7D14FC7F01122BB4900169E071
:10092900FCA3E0FDA3E0FEA3E0243CFFE43EFEE4DB
:100939003DFDE43CFCE47B107A0EF9F8C312059BFB
:100949004021900169E0FCA3E0FDA3E0FEA3E024BF
:100959003CFFE43EFEE43DFDE43CFC9001691206E7
:1009690043800A90016912064F00000E109001F0B1
:10097900E0FF7E001212C87F02123200020A65905F
:1009890001F0E064037067900166E0700B7B05FA83
:100999007D14FC7F01122BB490016DE0FCA3E0FDF6
:1009A900A3E0FEA3E0FFE4FBFA797A784412002D74
:1009B90090016D1206437F007E5C7DC17C479001EA
:1009C9006DE0F8A3E0F9A3E0FAA3E0FB1202C4602A
:1009D9000C400A90016D12064F47C15C009001F06E
:1009E900E0FF7E001212C87F02123200806E900171
:1009F900F0E064047066900166E0700B7B05FA7D97
:100A090014FC7F01122BB4900171E0FCA3E0FDA35B
:100A1900E0FEA3E024E8FFEE3403FEE43DFDE43C00
:100A2900FC9001711206437FB87E827D017C0090A3
:100A39000171E0F8A3E0F9A3E0FAA3E0FBD3120502
:100A49009B400A90017112064F000182B89001F093
:100A5900E0FF7E001212C87F02123200900198E076
:100A690020E003020C2A9001DAE020E003020C2ABC
:100A79009001F0E07028900166E0700B7B05FA7D2B
:100A890014FC7F01122BB49001F1E014F0E0C3646F
:100A990080947B500374FBF01226C4020C2A900147
:100AA900F0E064017029900166E0700B7B05FA7D26
:100AB90014FC7F01122BB49001667401F09001F0CF
:100AC900E0FF7E001212C87F02123200020C2A9047
:100AD90001F0E06402706B900166E0700B7B05FA2F
:100AE9007D14FC7F01122BB4E47F3CFEFDFC9001D8
:100AF90069E0F8A3E0F9A3E0FAA3E0FBC312059BC0
:100B09004024900169E0FCA3E0FDA3E0FEA3E0948A
:100B19003CFFEE9400FEED9400FDEC9400FC900186
:100B290069120643800A90016912064F000000000D
:100B39009001F0E0FF7E001212C87F02123200021B
:100B49000C2A9001F0E064037066900166E0700B76
:100B59007B05FA7D14FC7F01122BB4E4FFFE7D7A3C
:100B69007C4490016DE0F8A3E0F9A3E0FAA3E0FB6F
:100B79001202C4402090016DE0FCA3E0FDA3E0FE59
:100B8900A3E0FFE4FBFA797A784412002990016D19
:100B9900120643800A90016D12064F000000009072
:100BA90001F0E0FF7E001212C87F0212320080714C
:100BB9009001F0E064047069900166E0700B7B05B8
:100BC900FA7D14FC7F01122BB4E47FE87E03FDFC5F
:100BD900900171E0F8A3E0F9A3E0FAA3E0FBC312E6
:100BE900059B4024900171E0FCA3E0FDA3E0FEA376
:100BF900E094E8FFEE9403FEED9400FDEC9400FC14
:100C0900900171120643800A90017112064F00008B
:100C190000009001F0E0FF7E001212C87F0212323C
:100C290000900198E020E203020F2D9001DAE02004
:100C3900E203020F2D900166E0700B7B05FA7D142B
:100C4900FC7F01122BB4E49001EFF07F0112320016
:100C5900D200900169E0FCA3E0FDA3E0FEA3E0FF60
:100C6900EC4D4E4F7024A3E0FCA3E0FDA3E0FEA3EE
:100C7900E0FFEC4D4E4F7012A3E0FCA3E0FDA3E0B2
:100C8900FEA3E0FFEC4D4E4F60089001F27401F0B5
:100C99008005E49001F2F09001F0E0703290014A91
:100CA9007407F0A37402F09001F1E090014CF0F4A4
:100CB900A3F07B017A01794990019E7409F0E4FF60
:100CC90012308EE49001F0F09001647407F02290E4
:100CD90001F2E0600D9001647403F09001DA74FF91
:100CE900F022E49001F0F09001647407F022900181
:100CF90098E030E26C9001DAE030E265900164E05E
:100D0900B4021C7403F0900166E0700B7B05FA7D58
:100D190014FC7F01122BB49001DA74FFF080429029
:100D29000164E0B4031B7407F0E49001DAF0900168
:100D390066E0702D7B05FA7D14FC7F01122BB480CF
:100D490020900164E0B404197405F0E49001DAF02C
:100D5900900166E0700B7B05FA7D14FC7F02122B73
:100D6900B4900198E020E103020E309001DAE0200E
:100D7900E103020E30900166E0700B7B05FA7D14E9
:100D8900FC7F01122BB4900164E06402705390015E
:100D9900F0E004F0E0D3940440037401F0900210F1
:100DA900E0900166F090016912064F000000009082
:100DB900016D12064F0000000090017112064F00EC
:100DC9000000009001EF7401F0A3E0FF900193F09F
:100DD9009001DA74FFF07E001212C87F021232000D
:100DE90022900164E06404703E900194E0FF64097C
:100DF9006004EFB40A0D900194740BF0E490019330
:100E0900F08024900193E004F0E0B4010204F09032
:100E19000194740BF0900193E0D394044009A374F6
:100E290009F0E4900193F0900164E0640460030226
:100E39000F2D900198E030E3569001DAE030E34F4E
:100E4900900166E0700B7B05FA7D14FC7F01122B83
:100E5900B4C3900168E09458900167E09402502669
:100E6900A3E0240AF0900167E03400F0E0FEA3E07B
:100E7900FF7C007D0A12046A122A3D900199EFF065
:100E8900FD7F02123031E4900193F0A37409F090D0
:100E99000198E020E003020F2D9001DAE020E00341
:100EA900020F2D900166E0700B7B05FA7D14FC7F23
:100EB90001122BB4D3900168E09464900167E09427
:100EC900004026A3E024F6F0900167E034FFF0E04B
:100ED900FEA3E0FF7C007D0A12046A122A3D9001FC
:100EE90099EFF0FD7F02123031E4900193F0A37481
:100EF90009F0229001DCE064027029900198E0FF7A
:100F090030E3219001DAE0FE30E319EF30E115EE2C
:100F190030E111900166E0700B7B05FA7D14FC7FCE
:040F290002122BB4D1
:010F2D0022A1
:0100220022BB
:01326D00223E
:10225B004101E1004201E200004201DF00004201C6
:03226B00DD000093
:0D3239009001E17401F0E4FFFE12321E224C
:102BB40090019BECF0A3EDF0A3EAF0A3EBF09001FD
:102BC4009AEFF0700A9001E1F0FFFE12321E22909B
:102BD40001E1E0703590019BE0FFA3E09001E2CFBA
:102BE400F0A3EFF090019DE0FFA3E09001DFCFF0B0
:102BF400A3EFF07FF47E0112321E90019AE004905C
:0B2C040001E1F0E49001DDF0A3F022FC
:10274D009001E1E0B4010CE4FFFE12321EE49001B1
:10275D00E1F0229001E1E0D394014067A3E0FEA3F4
:10276D00E0FF9001DDE0B50613A3E0B5070EE4FF31
:10277D00FE12321E9001E1E014F080399001E2E08A
:10278D00FEA3E0FF9001E0E02FFF9001DFE03EFEB1
:10279D00D39001DEE09F9001DDE09E40189001E1B5
:1027AD00E0D3940140077FF47E0112321E74FF9036
:1027BD0001DDF0A3F09001DEE004F070069001DD84
:0427CD00E004F02212
:0A226E00C10141020D0041020E0003
:1024FB00E58720E4030225A1E4F595A2AF9202C281
:10250B00AF75C7AA75C755439F01A20292AF75A6B7
:10251B0030F5A775AF04A2AF9202C2AF75C7AA750B
:10252B00C75543A401A20292AF85AE0875A631F53B
:10253B00A7A2AF9202C2AF75C7AA75C75543A40134
:10254B00A20292AF85AE09A2AF9202C2AF75C7AA23
:10255B0075C755539FFEA20292AFE50825E0FFE435
:10256B0033FEE50954017C002FFFEC3EFE74F12F86
:10257B00FF74FF3EFEEF5401F509EEC313EF13F5A5
:10258B000875C7AA75C75585088475C7AA75C75539
:06259B008509855387EF5E
:0125A1002217
:1031EF00E4900198F0900166E0900210F01230D058
:0131FF0022AD
:0C325200122FC6900210E0900166F022DE
:101F3800E4900198F0900175740AF0A37402F0A37C
:101F48007458F0A3745AF0A37411F0A37478F0A332
:101F5800E4F0A37414F0A3E4F0A37432F0A3E4F063
:101F6800A37412F0A3E4F0A37432F0A3E4F0A37412
:101F78000BF0A3E4F0A3740BF0A3E4F0A37410F047
:101F8800A3E4F0A37410F0A3E4F0A37410F0A3E4A6
:101F9800F0A37410F0A3E4F0A37410F0A3E4F0A38A
:101FA8007410F0E4900198F00000000000000000B8
:101FB80000000000000000900198E004F0E0B46424
:101FC800E7900176E0FEA3E0FF7C007D0A12046A38
:101FD800AD077F0C123031900176E0FEA3E0FF7C64
:101FE800007D0A12046AAD077F0C12303190017827
:101FF800E0FD7F0D123031900179E0FD7F0E123047
:102008003190017AE0FD7F0F123031900198741001
:10201800F0900198E0FF25E0245BF582E43401F5B7
:1020280083E0A3E0FD123031900198E004F0E0C3B2
:04203800941C40DDD7
:01203C002281
:10203D00E4FF0000000000000000000000000000B0
:10204D00001224FBE4F5B1F5B2F5B3F5B4F5ACF53A
:10205D00AD75B10B75B22075B30175B4109001DA81
:10206D00F01231B612315712315712315712315712
:10207D00123157122F1B1232101231CA122FFC12AD
:10208D0030B212325E9001647401F0E4FF00000082
:10209D000000000000000000000000000FEFB4324F
:1020AD00EC123252D201D2AF900166E0700B7B057B
:1020BD00FA7D14FC7F01122BB4121A669001CEE04A
:1020CD00600BE4F0121E2512274D122CC59001D085
:1020DD00E0600BE4F0121898122949120F2E9001AE
:1020ED00D1E0601EE4F01229C430011690020EE01A
:1020FD0004F0E0C39402400A121F38E490020EF07F
:10210D00C2019001CDE06024E4F01215C03000173B
:10211D0090020DE004F0C3940340111231EFE490EE
:10212D00020DF0C2008005E490020DF0122F5680D2
:01213D008819
:01213E00227E
:102AFC00900198EBF0A3EAF0A3E9F0A3E0FBA3E0CC
:102B0C00FAA3E0F9C003C002C001900198E0FBA356
:102B1C00E0FAA3E0F91206C4900198E0FBA3E0FAF6
:102B2C00A3E0F9900003120680000000009000075B
:102B3C001206800000000090019EE0FCA3E0FDA3C3
:0C2B4C00E0FEA3E0FF90000B1205EF225A
:102E29009001A7EBF0A3EAF0A3E9F09001A7E0FB7A
:102E3900A3E0FAA3E0F99000071205BFEF2401FF10
:102E4900E43EFEE43DFDE43CFC90000B1206131247
:102E590004FBAC00AD01AE02AF039001A7E0FBA3F8
:102E6900E0FAA3E0F9900003120613C312059B7060
:072E7900037F01227F00220C
:103187009000071205BF900003120613C312059B98
:0831970070037F01227F00227A
:1027D1009001A6EDF09001A3EBF0A3EAF0A3E9F0DC
:1027E100122E29EF60037F00229001A6E0FFC007AF
:1027F1009001A3E0FBA3E0FAA3E0F9900007120522
:10280100BF1206A48F828E83D0E01204489001A3E8
:10281100E0FBA3E0FAA3E0F99000071205BFEF2463
:1028210001FFE43EFEE43DFDE43CFC90000B12069A
:10283100131204FBAC00AD01AE02AF039001A3E0A3
:10284100FBA3E0FAA3E0F99000071205EF7F012254
:10263700900199EBF0A3EAF0A3E9F0900199E0FB90
:10264700A3E0FAA3E0F9123187EF60037F0022903D
:102657000199E0FBA3E0FAA3E0F99000031205BF9C
:102667001206A48F828E83120409FF90019CE0FB5F
:10267700A3E0FAA3E0F9EF120436900199E0FBA377
:10268700E0FAA3E0F99000031205BFEF2401FFE48D
:102697003EFEE43DFDE43CFC90000B1206131204E1
:1026A700FBAC00AD01AE02AF03900199E0FBA3E0E4
:0D26B700FAA3E0F99000031205EF7F012265
:082278004100000041000100DB
:0E3210007F607E097D007C00122851D2AC2226
:102FFC0090019B7401F0A37400F0A37405F0A3126C
:10300C00064F0000012C7B017A01793A122AFC90C0
:10301C000131747FF090013814F090014904F09064
:05302C00015014F02228
:10303100E4FE90014AEFF0FEA37401F06EFEA3EDF1
:10304100F06EFEA3F0E4A3F0A3747EF07B017A019D
:10305100794990014BE0240690019EF0E4FF123083
:013061008EE0
:01306200224B
:102F8F00E4FE90014AEFF0FEA37402F06EFEA3ED93
:102F9F00F06EFEA3EBF06EFEA3F0E4A3F0A3747E3D
:102FAF00F07B017A01794990014BE0240690019E54
:062FBF00F0E4FF12308E69
:012FC50022E9
:101A660090019C7401F0A37401F0A37498F07B01BB
:101A76007A01793A122637EF7003021BC0900131C2
:101A8600E0FF900198E0FEB5070B9000007401F0AE
:101A9600900162F022900000E024FE601C14604277
:101AA600147003021B2E24036003021BC090013234
:101AB600EEF09000007402F022900133EEF0D39421
:101AC600024006E4900000F022E4900001F07B0161
:101AD600A304F0A37401F0A37434F090000074031F
:101AE600F022900198E0FF900002E0FBA3E0FAA349
:101AF600E0F9900001E0F582758300EF120448904A
:101B06000001E004F0900133E02402FFE433FE908C
:101B16000001E0C39FEE6480F87480985003021BB6
:101B2600C09000007404F022900138E0FF90019804
:101B3600E06F6003021BBB7B0190000204F0A374FC
:101B460001F0A37432F0E4900198F0900001F09057
:101B56000133E02402FFE433FE900001E0C39FEE70
:101B66006480F8748098502B900198E0FF900002F2
:101B7600E0FBA3E0FAA3E0F9900001E0F5827583AB
:101B860000120409FEEF6E900198F0900001E00447
:101B9600F080BC900002E0FBA3E0FAA3E0F990001D
:101BA60001E0F582758300120409FF900198E0B503
:0A1BB6000703121BC1E4900000F0C9
:011BC0002202
:101BC100900132E024FD601714602424FE60191492
:101BD100604A14606E147003021C5D021CF522B28F
:101BE100859001627401F0229001647407F02290E3
:101BF10001627401F0A3E07008900134E090016388
:101C0100F09001647408F0900166E06003021CF535
:101C11007B05FA7D14FC7F01122BB42290014A74DA
:101C210007F0A37402F09001F1E090014CF0F4A3ED
:101C3100F07B017A01794990019E7409F0E4FF1269
:101C4100308E22900135E0FF900134E0FE5F700696
:101C51009001F1EEF022E49001F1F022900166E0B2
:101C6100700B7B05FA7D14FC7F01122BB4900134BB
:101C7100E070269001E9E04410F04408F04420F0BF
:101C810054BFF054FEF054FDF054FBF07FD27E04BB
:101C910012213F7F0112320022900134E064017071
:101CA100269001E9E054EFF054F7F054DFF044409E
:101CB100F04401F04402F04404F07F2E7E1612211C
:101CC1003F7F0212320022900134E06402702590BD
:101CD10001E9E054EFF054F7F054DFF054BFF05451
:101CE100FEF054FDF054FBF07FB87E2212213F7FBD
:051CF100011232002287
:102280004301953F3F3F43015D5E760C4101610094
:10229000410160004401520000000041015600412C
:1022A000015700410158004101590041015A0041C4
:0722B000015B0041015C002D
:1030B200E4900162F090016912064F000000009056
:0E30C2000167E4F0A37464F0E4900166F0226C
:102A3D00EF24F6FDE434FFFCE41203367B487AE123
:102A4D0079BA783F12011EE4FBFA798878411200B9
:102A5D002D90019A120643E4FFFE7D887CC1900102
:102A6D009AE0F8A3E0F9A3E0FAA3E0FB12002D7BB6
:102A7D00067A817915783E120227E4FBFA79C87837
:102A8D004212002DE4FBFA7920784112022712033D
:012A9D006FC9
:012A9E002215
:102CC500900161E07005900160F022900160E004E0
:102CD500F0E0D394284041E4F0900168E0940A9034
:102CE5000167E09400400EA3E024F6F0900167E050
:102CF50034FFF08007E4900167F0A3F0E4900193BE
:102D0500F0E0FF7E001212C8900167E07002A3E0B8
:092D15007006900160F0A3F022A9
:1015C000900164E06404600B90015212064F000029
:1015D0000000229001F0E064027053900169E0FC89
:1015E000A3E0FDA3E0FEA3E0FFEC4D4E4F60219091
:1015F0000169E0A3E0A3E0A3E024FFFFEE34FFFED7
:10160000ED34FFFDEC34FFFC900169120643807459
:101610009001647405F0E49001DAF0900166E070E6
:10162000637B96FA7D32FC7F0A122BB480569001C0
:1016300069E0FCA3E0FDA3E0FEA3E02401FFE43E9B
:10164000FEE43DFDE43CFC900169120643E47F109A
:101650007E0EFDFC900169E0F8A3E0F9A3E0FAA397
:10166000E0FBC312059B401C9001647405F0E490FC
:1016700001DAF0900166E0700B7B96FA7D32FC7F18
:101680000A122BB49001F0E0640360030217499042
:101690000152E0F8A3E0F9A3E0FAA3E0FBC000C028
:1016A00001C002C003900167E0FCA3E0FDE4120367
:1016B00036E4FBFA79B47843120227D003D002D083
:1016C00001D00012002D90015212064390016DE0EE
:1016D000FCA3E0FDA3E0FEA3E0FFC004C005C0063C
:1016E000C007900167E0FCA3E0FDE4120336E4FBD1
:1016F000FA79B47843120227A804A905AA06AB0711
:10170000D007D006D005D00412002990016D120632
:1017100043E4FFFE7D207C4190016DE0F8A3E0F9F9
:10172000A3E0FAA3E0FB1202C4506F9001647405B9
:10173000F0E49001DAF0900166E0705E7B96FA7D4D
:1017400032FC7F0A122BB4805190016DE0F8A3E0C7
:10175000F9A3E0FAA3E0FBC000C001C002C00390FF
:101760000167E0FCA3E0FDE4120336E4FBFA79B480
:101770007843120227D003D002D001D00012002DEE
:1017800090016D12064390016DE0FCA3E0FDA3E023
:10179000FEA3E0FF9001521206439001F0E06404C2
:1017A000600302186C900167E0FCA3E0FDE4120303
:1017B00036E4FBFA79B47843120227E4FBFA79A005
:1017C000784212011EC004C005C006C00790017116
:1017D000E0FCA3E0FDA3E0FEA3E0FFE4120331A8D8
:1017E00004A905AA06AB07D007D006D005D004127D
:1017F00002C44050900167E0FCA3E0FDE412033610
:10180000E4FBFA79B47843120227E4FBFA79A07872
:101810004212011EC004C005C006C007900171E05D
:10182000FCA3E0FDA3E0FEA3E0FFE4120331D0033C
:10183000D002D001D00012002912036F9001711262
:101840000643804990017112064F0000000090018C
:10185000647405F0E49001DAF0900166E0702E7B8C
:1018600096FA7D32FC7F0A122BB48021E4FFFE7DC4
:10187000A07C42900152E0F8A3E0F9A3E0FAA3E0D3
:10188000FB12011E12036F90017112064390019327
:07189000E0FF7E001212C808
:01189700222E
:100F2E00900164E014B4080040030212C2900F490D
:100F3E0075F003A4C58325F0C58373020F610212F9
:100F4E00C70210190212C702116C0211CC0211E471
:100F5E0002125A900156E004F0E0D39401500302BD
:100F6E0012C7E4F09001E9E054F7F054FDF054FBA1
:100F7E00F04410F04401F04480F054DFF054BFF020
:100F8E00900158E02495F582E43401F583E0FDE408
:100F9E00FF1230ED900158E02495F582E43401F50E
:100FAE0083E0FD7F011230ED900158E02495F5822B
:100FBE00E43401F583E0FD7F021230ED900158E03C
:100FCE002495F582E43401F583E0FD7F031230EDC4
:100FDE009001937401F090016912064F0000000019
:100FEE009001647402F090014A7408F0A37401F049
:100FFE00E4A3F07B017A01794990019E7409F0E433
:10100E00FF12308E9001DA74FFF022900156E070DC
:10101E0079900166E0700B7B05FA7D14FC7F01125E
:10102E002BB4900158E0245DF582E43401F583E0A1
:10103E00FDE4FF1230ED900158E0245DF582E434BA
:10104E0001F583E0FD7F011230ED900158E0245D43
:10105E00F582E43401F583E0FD7F021230ED90015C
:10106E0058E0245DF582E43401F583E0FD7F031240
:10107E0030ED9001567401F0900158F09001E9E0C6
:10108E0054EFF054DFF054BFF022900156E004F01C
:10109E00E0D3940A50030212C77401F0900166E087
:1010AE00700B7B05FA7D14FC7F01122BB490015856
:1010BE00E0FFD394025061745D2FF582E43401F5A4
:1010CE0083E0FDE4FF1230ED900158E0245DF582DF
:1010DE00E43401F583E0FD7F011230ED900158E01C
:1010EE00245DF582E43401F583E0FD7F021230EDDC
:1010FE00900158E0245DF582E43401F583E0FD7F34
:10110E00031230ED900158E004F09001E9E054EF45
:10111E00F054DFF054BFF022E4900158F0900167D4
:10112E00F0A37464F07C007D0AFF7E0012046A1244
:10113E002A3D900198EFF0FB7D017F01122F8F90D9
:10114E000198E0FB7D017F01122F8F9001647404E2
:10115E00F0E4900193F0E0FF7E001212C82290019D
:10116E00E9E054EFF0E4900194F090016912064F1B
:10117E000000000090016912064F0000000090016F
:10118E006D12064F0000000090017112064F000014
:10119E000000E4FD7F01123031E4FD7F0112303199
:1011AE00E4900160F0A304F0E49001F2F09001F0FD
:1011BE00F0900156F0A3F09001647406F0229001B5
:1011CE0057E004F0E0D394FA50030212C7E4F09013
:1011DE0001647407F022900156E004F0E0D394030A
:1011EE0050030212C79001E9E04410F0E49001941C
:1011FE00F090016912064F0000000090016912067E
:10120E004F0000000090016D12064F00000000908C
:10121E00017112064F000000009001937402F0E07D
:10122E00FF7E001212C89001DA7406F0E49001619C
:10123E00F09001F2F09001F0F09001647402F0E48D
:10124E00900156F0900158F012323922E49001DAF2
:10125E00F07D73FF1230ED7D607F011230ED900155
:10126E00B8E0FD7F021230ED900163E024B8F58204
:10127E00E43401F583E0FD7F031230ED9001E9E0E7
:10128E0054F7F054FDF054FBF054EFF054FEF054CC
:10129E00DFF054BFF0E4900164F0900194F09001FF
:1012AE0064F0900166E070117B05FA7D14FC7F01FD
:0912BE00122BB422E4900156F059
:0112C7002204
:0812C80090019AEEF0A3EFF093
:1012D0004E70469001E9E04408F054FDF054FBF0F4
:1012E00054FEF054DFF04440F0900167E0FAA3E0D0
:1012F000FB7C007D64FFAE0212046A90019CEFF05B
:101300007C007D64AF03AE0212046AAF05A3EFF068
:1013100090019CE0FF1228CE2290019AE07004A375
:10132000E0640170669001E9E054F7F054FDF05478
:10133000FBF054EFF054FEF054DFF054BFF0900196
:1013400066E090019EF0701C7D3FFF1230ED7D2F16
:101350007F011230EDE4FD7F021230EDE4FD7F03EA
:101360001230ED2290019EE0640160030215BF7D02
:101370003FFF1230ED7D637F011230ED7D637F0210
:101380001230EDE4FD7F031230ED2290019AE070FF
:1013900004A3E0640270639001E9E054F7F054FDA7
:1013A000F054FBF04401F04420F04440F0E47B3C76
:1013B000FAF9F8900169E0FCA3E0FDA3E0FEA3E0E8
:1013C000FF1204FBE47B64FAF9F81204FB90019C21
:1013D000EBF0E47B3CFAF9F8900169E0FCA3E0FD56
:1013E000A3E0FEA3E0FF1204FBAF0390019DEFF02A
:1013F000FD90019CE0FF1228CE2290019AE070043B
:10140000A3E0640360030214AE9001E9E054F7F036
:101410004402F054FBF054FEF054DFF04440F07FFF
:10142000007E4B7DC37C4790016DE0F8A3E0F9A3FB
:10143000E0FAA3E0FB1202C4600C400A90016D12B6
:10144000064F47C34B0090016DE0FCA3E0FDA3E015
:10145000FEA3E0FF90019F12064390019FE0FCA3D2
:10146000E0FDA3E0FEA3E0FF12036FE47BE87A0354
:10147000F9F81204FB90019CEFF090019FE0FCA3AF
:10148000E0FDA3E0FEA3E0FF12036FE47B0AFAF99C
:10149000F81204FBE47B64FAF9F81204FBAF039042
:1014A000019DEFF0FD90019CE0FF1228CE229001FB
:1014B0009AE07004A3E0640460030215BF9001E9A0
:1014C000E054F7F054FDF04404F054FEF054DFF023
:1014D00054BFF07FB87E827D017C00900171E0F8FE
:1014E000A3E0F9A3E0FAA3E0FBD312059B505490CC
:1014F00001E9E04440F0E47BE87A03F9F8900171F7
:10150000E0FCA3E0FDA3E0FEA3E0FF1204FB9001DA
:101510009CEFF0E47BE87A03F9F8900171E0FCA31A
:10152000E0FDA3E0FEA3E0FF1204FBAC00AD01AEC2
:1015300002AF03E47B0AFAF9F81204FB90019DEF75
:10154000F0806A900171E0FCA3E0FDA3E0FEA3E05F
:10155000FFE41203317B807AE5797378491202C483
:10156000404BE47BE87A03F9F8900171E0FCA3E0DA
:10157000FDA3E0FEA3E0FF1204FBE47B0AFAF9F806
:101580001204FB90019CEFF0E47B64FAF9F89001FF
:1015900071E0FCA3E0FDA3E0FEA3E0FF1204FBE486
:1015A0007B64FAF9F81204FB90019DEBF090019C2A
:0F15B000E0FFA3E0FD1228CEE4FD7F031230ED33
:0115BF002209
:10294900900194E024F660251460592402706BE428
:10295900900159F0900193F0E0FF7E001212C890A7
:102969000194740AF09001E9E04410F022900159B1
:10297900E004F0E0D394324041E4F0900193E004A4
:10298900F0E0B4010204F0900193E0C39405400221
:10299900E4F0900193E0FF7E001212C89001E9E093
:1029A9004410F022900193E0FF7E001212C89001BA
:0A29B900E9E054EFF0E4900194F01F
:0129C30022F1
:1029C40090015BE014601704706EE4900162F0FD06
:1029D4007F03123031E490015AF0A304F0229001F5
:1029E4005AE004F0900162E0FD70447F031230313C
:1029F40090015AE0D39401403FE4F090015CE0047C
:102A0400F0E0D3940A40229001637401F0A37408A7
:102A1400F090015B7402F0900166E0701B7B05FA94
:102A24007D14FC7F03122BB422E490015BF022E4BA
:082A340090015CF090015BF0E1
:012A3C002277
:0C325E00E49001EFF0A3F0A3F0A3F02235
:1022B7004101CE004101CF004101D0004101D100D1
:1022C7004101CD004201C500004201C700004201A3
:0822D700C900004201CB000028
:03000B0002239A33
:08239A00C0E0C083C082C0D086
:1023A200758CCB758AEA9001CE7401F09001C6E07B
:1023B20004F070069001C5E004F0D39001C6E094E9
:1023C2000A9001C5E094004009E4F0A3F09001D026
:1023D20004F09001C8E004F070069001C7E004F038
:1023E200D39001C8E094329001C7E094004009E420
:1023F200F0A3F09001D104F09001CAE004F070065D
:102402009001C9E004F0D39001CAE094639001C93D
:10241200E094004009E4F0A3F09001CD04F09001B3
:10242200CCE004F070069001CBE004F0D39001CC34
:10243200E094059001CBE094004009E4F0A3F09011
:0424420001CF04F0D2
:09244600D0D0D082D083D0E03266
:03002300022ED1D9
:102ED100C0E0C0F0C083C082C0D075D000C000C0C7
:0D2EE10001C002C003C004C005C006C00748
:102EEE0030980FAF997B017A01793AAD071227D14D
:022EFE00C29878
:102F0000D007D006D005D004D003D002D001D00025
:0B2F1000D0D0D082D083D0F0D0E032CF
:102F1B00A2AF9202C2AF75C7AA75C75543910143C1
:102F2B00C60275C7AA75C7555391FEA20292AF533D
:102F3B00DF3F43DF0353DFFB75D10375D984E4F522
:0B2F4B00D3F5DB53D6FDD2DED2DF222F
:0E321E00AD07AC06ECF5D3AF058FDBD2DE2298
:1031CA005389F0438901538EF7758CFA758ACAD2EE
:0431DA00A9D28C22C8
:10312300EF14600C0470103098FDAE99C2988007BC
:0931330030F8FDAE9AC2F8AF06B7
:01313C002270
:10310800EF14600D047013C2998D9920990C80FBFF
:0B31180022C2F9AF058F9A30F9FD22AA
:1025A200900211EFF0AB05AA047C277D10AF03AEB9
:1025B2000212046AEF2430FDE0FF1231087C277D0D
:1025C20010AF03AE0212046A7E037FE8CFCDCFCEF6
:1025D200CCCE12046AEF2430FDE0FF1231087C03F6
:1025E2007DE8AF03AE0212046A7E007F64CFCDCFD6
:1025F200CECCCE12046AEF2430FDE0FF1231087C0B
:10260200007D64AF03AE0212046A7E007F0ACFCD62
:10261200CFCECCCE12046AEF2430FDE0FF12310897
:10262200AE02AF037C007D0A12046AED2430FDE0A5
:05263200FF1231082237
:10319F00AE071203F0FD600EAF061231087401295D
:0731AF00F9E43AFA80EC227A
:10308E00AE0790019EE0D394004018AF061203F0F5
:10309E00FD123108740129F9E43AFA90019EE01408
:0430AE00F080DF22AD
:0700030090020F74A5F0222A
:102FC600E4FF7F02900198E4F0A3DFFC7F027B011F
:102FD6007A01799890019E7402F0E4FF122E807BAC
:102FE600017A0179981203F0B4A50A90000112043F
:052FF60009900210F03B
:012FFB0022B3
:1030D000E4FF122A9F90020F74A5F07B017A027917
:0D30E0000F90019D7402F0E4FF1222E02227
:102A9F0074807E00A807088005C333CE33CED8F9E3
:102AAF002400FFEE3445FEEFF5A6EEF5A775AEFF59
:102ABF00A2AF9202C2AF75C7AA75C755439F01A2B5
:102ACF000292AFA2AF9202C2AF75C7AA75C75543A4
:102ADF00A501A20292AF75AF22A2AF9202C2AF754B
:0C2AEF00C7AA75C75543A401A20292AF0C
:012AFB0022B8
:0B22E00090019AEBF0A3EAF0A3E9F0F4
:1022EB0074807E00A807088005C333CE33CED8F99F
:1022FB002400FFEE344590019EF0A3EFF0A2AF92C5
:10230B0002C2AF75C7AA75C755439F01A20292AF10
:10231B00A2AF9202C2AF75C7AA75C75543A501A25A
:10232B000292AF75AF21E4FD90019DE0FFEDC39FDD
:10233B005036A3E0FEA3E02DF5A6EEF5A790019A8B
:10234B00E0FBA3E0FAA3E0F98D8275830012040988
:10235B00F5AEA2AF9202C2AF75C7AA75C75543A41B
:10236B0001A20292AF0D80C0A2AF9202C2AF75C79D
:10237B00AA75C75553A5FEA20292AFA2AF9202C295
:0E238B00AF75C7AA75C755539FFEA20292AF49
:012399002221
:0B2E800090019BEBF0A3EAF0A3E9F047
:102E8B0074807E00A807088005C333CE33CED8F9F3
:102E9B002400FFEE3445FEE4FD90019EE0FCEDC303
:102EAB009C5022EF2DF582E43EF583E493FC9001D8
:102EBB009BE0FBA3E0FAA3E0F98D82758300EC1293
:052ECB0004480D80D455
:012ED00022DF
:03326A007F0022C0
:102D1E009001F3120643538EF7438901D28CE4FFE0
:102D2E00FEFDFC9001F3E0F8A3E0F9A3E0FAA3E0C6
:102D3E00FBC312059B602F758A7E758CFF308DFD4F
:102D4E00C28D9001F3E0FCA3E0FDA3E0FEA3E0241E
:102D5E00FFFFEE34FFFEED34FFFDEC34FFFC90017F
:092D6E00F312064380B8C28C2266
:102D77009001F7120643538EF7438901D28CE4FF83
:102D8700FEFDFC9001F7E0F8A3E0F9A3E0FAA3E069
:102D9700FBC312059B602F758ACA758CFA308DFDAF
:102DA700C28D9001F7E0FCA3E0FDA3E0FEA3E024C1
:102DB700FFFFEE34FFFEED34FFFDEC34FFFC900126
:092DC700F712064380B8C28C2209
:102DD0009001FB120643538EEF438910D28EE4FF1D
:102DE000FEFDFC9001FBE0F8A3E0F9A3E0FAA3E00C
:102DF000FBC312059B602F758BEA758DCB308FFD61
:102E0000C28F9001FBE0FCA3E0FDA3E0FEA3E02461
:102E1000FFFFEE34FFFEED34FFFDEC34FFFC9001CC
:092E2000FB12064380B8C28E22A9
:102B58009001FF12064353C9BF53C9DF43C910D2BE
:102B6800CAE4FFFEFDFC9001FFE0F8A3E0F9A3E052
:102B7800FAA3E0FBC312059B602F75CC3075CDF826
:102B880030CFFDC2CF9001FFE0FCA3E0FDA3E0FE43
:102B9800A3E024FFFFEE34FFFEED34FFFDEC34FF2D
:0C2BA800FC9001FF12064380B8C2CA2254
:102C0F0090020312064375C40743C408E4FFFEFD98
:102C1F00FC900203E0F8A3E0F9A3E0FAA3E0FBC302
:102C2F0012059B603275C52C75C6CFE5C430E4FB29
:102C3F0053C4EF900203E0FCA3E0FDA3E0FEA3E08A
:102C4F0024FFFFEE34FFFEED34FFFDEC34FFFC906C
:0B2C5F00020312064380B553C4F722A5
:102C6A0090020712064375C40743C408E4FFFEFD39
:102C7A00FC900207E0F8A3E0F9A3E0FAA3E0FBC3A3
:102C8A0012059B603275C5D875C6FFE5C430E4FBF2
:102C9A0053C4EF900207E0FCA3E0FDA3E0FEA3E02B
:102CAA0024FFFFEE34FFFEED34FFFDEC34FFFC9011
:0B2CBA00020712064380B553C4F72246
:1028510090019812064353B1BF53B2BF53B17F5396
:10286100B27F75985043878053C4F843C4209001C8
:1028710098E0F8A3E0F9A3E0FAA3E0FB7FBC7ED4E3
:102881007D0F7C001204FBC3E49FFFE49EFE7401F4
:102891009DFDE49CFC78081205AC8FC6900198E080
:1028A100F8A3E0F9A3E0FAA3E0FB7FBC7ED47D0F9F
:1028B1007C001204FBC3E49FFFE49EFE74019DFDB6
:0D28C100E49CFCEFE48FC543C408D29922CB
:10313D0075C7AA75C755A2AF9202C2AF75C7AA755A
:0A314D00C755439F80A20292AF22F3
:100026000203DBE86480F8E933E83360110460F02A
:10003600ED33EC337009E8FCE9FDEAFEEBFF220440
:1000460060DED3EB9FEA9EE99DE8C2E78CF0C2F73B
:1000560095F0400CE8CCF8E9CDF9EACEFAEBCFFB07
:100066001203A685D0F05804700320D5B3E80470B7
:10007600075002B2D50203E592D5EC0460F7E4CC52
:10008600C0E0C398F8603B94186008400DD0E0FBD0
:100096000203BDE4FBFAC9FC8028E830E406E4C9A3
:1000A600FBE4CAFCE830E305E4C9CACBFCE8540724
:1000B6006010F8C3E913F9EA13FAEB13FBEC13FC2F
:1000C600D8F130F52FC3E49CFCEF9BFFEE9AFEEDD2
:1000D60099FDD0E0FBEF4E4D4C701222DB0302037C
:1000E600E2EC2CFCEF33FFEE33FEED33FDED30E7B3
:1000F600EB0203BDEF2BFFEE3AFEED39FDD0E0FB40
:1001060050130BBB00030203E5ED13FDEE13FEEFE8
:0801160013FFEC13FC0203BD12
:10011E00EC4D6011E8497017ED33EC3304600DE4DB
:10012E00FCFFFEFD22E933E8330470F80203DB1214
:10013E0003A658046009E4CC248150062850090215
:10014E0003E52840030203E2C0E0EB4A7044B980A5
:10015E0006D0E0FB0203D1EF4E701CBD8008EBFF12
:10016E00EAFEE9FD80EBE98DF0A4FEE5F002020760
:10017E00E9CDF9EAFEEBFFEF89F0A4FCE5F0CE89BC
:10018E00F0A42EFFE435F0CD89F0A42DFEE435F079
:10019E008067EF4E7005BD80D780C3EF8BF0A4ACA7
:1001AE00F0EE8BF0A42CFCE435F0F8EF8AF0A42CE2
:1001BE00E5F038FCE433CB8DF0A42CFCE5F03BF8F5
:1001CE00EE8AF0A42CFCE5F038F8E433CF89F0A4E5
:1001DE002CFCE5F038CF3400CE89F0A42FFFE5F0EB
:1001EE003EFEE433C98DF0A42EFEE5F039CD8AF043
:1001FE00A42FFFE5F03EFEE43DFD33D0E0FB5007BB
:10020E000BBB000F0203E5EC2CFCEF33FFEE33FECD
:06021E00ED33FD0203BDFB
:100224000203E5EC5D046005E8590470030203DB96
:100234001203A6580460F6EC4860F2EC7004FDFE6C
:10024400FF22C860DB2481C85009C39860025006AD
:100254000203E29850CAF582E9294B4A7005AB8241
:100264000203D175F0007C1A7880C3EF9BEE9AEDFF
:1002740099400DC3EF9BFFEE9AFEED99FDE842F025
:10028400DC23ACF0D0E0FFD0E0FED0E0FDAB822078
:10029400E7101BEB60BAEC2CFCEF33FFEE33FEED02
:1002A40033FD0203BDE803F830E705C0F075F00044
:1002B400EF2FFFEE33FEED33FD40B830E7C280AAE6
:1002C40074F8CC6480CCC86480C8F582046043C3ED
:1002D400EB9FF5F0EA9E42F0E99D42F0E89C45F080
:1002E40060305018E5825FFFE582F42B5582FB50A5
:1002F400210ABA001D09B90019088016E5825BFBC2
:10030400E582F42F5582FF50090EBE00050DBD0095
:10031400010CC3EB9FF5F0EA9E42F0E99D42F0E840
:0D0324009C45F06007CC4820E701B3EC22B7
:1003310075F020800E75F010800575F0087D007E47
:10034100007F003392D530D50312058DEC33401078
:10035100EF33FFEE33FEED33FDEC33FCD5F0ED2250
:0E036100E5F0247EA2D513CC92E7CDCEFF228C
:10036F00EDD2E7CD33EC3392D524814006E4FFFE86
:10037F00FDFC22FCE4CFCECDCC24E0501174FF80E5
:10038F00EDC3CC13CCCD13CDCE13CECF13CF047082
:07039F00F030D5DE02058DF0
:1003A600E9D2E7C933E833F892D5EDD2E7CD33EC9D
:0703B60033FC5002B2D52216
:1003BD00EC30E7100FBF000C0EBE00080DBD0004A1
:1003CD000BEB6014A2D5EB13FCED92E7FD2274FF4D
:1003DD00FCFDFEFF22E480F8A2D574FF13FC7D80A6
:0303ED00E480EFBA
:10247B0002203DE493A3F8E493A34003F68001F21A
:10248B0008DFF48029E493A3F85407240CC8C33362
:10249B00C4540F4420C8834004F456800146F6DF31
:1024AB00E4800B0102040810204080902215E47E8A
:1024BB00019360BCA3FF543F30E509541FFEE49326
:1024CB00A360010ECF54C025E060A840B8E493A3ED
:1024DB00FAE493A3F8E493A3C8C582C8CAC583CA18
:1024EB00F0A3C8C582C8CAC583CADFE9DEE780BED0
:0122DF0000FE
:1003F000BB010689828A83E0225002E722BBFE020B
:09040000E32289828A83E493223D
:10040900BB010CE58229F582E5833AF583E02250A8
:1004190006E92582F8E622BBFE06E92582F8E222F2
:0D042900E58229F582E5833AF583E493220C
:10043600BB010689828A83F0225002F722BBFE01A5
:02044600F3229F
:10044800F8BB010DE58229F582E5833AF583E8F0EA
:10045800225006E92582C8F622BBFE05E92582C896
:02046800F2227E
:10046A00BC000BBE0029EF8DF084FFADF022E4CC76
:10047A00F875F008EF2FFFEE33FEEC33FCEE9DEC3F
:10048A00984005FCEE9DFE0FD5F0E9E4CEFD22ED85
:10049A00F8F5F0EE8420D21CFEADF075F008EF2FCF
:1004AA00FFED33FD4007985006D5F0F222C398FDC0
:0504BA000FD5F0EA225D
:1004BF0075F008758200EF2FFFEE33FECD33CDCCF4
:1004CF0033CCC58233C5829BED9AEC99E582984077
:1004DF000CF582EE9BFEED9AFDEC99FC0FD5F0D654
:1004EF00E4CEFBE4CDFAE4CCF9A88222B800C1B97E
:1004FF000059BA002DEC8BF084CFCECDFCE5F0CBBC
:10050F00F97818EF2FFFEE33FEED33FDEC33FCEBF4
:10051F0033FB10D703994004EB99FB0FD8E5E4F9AF
:10052F00FA227818EF2FFFEE33FEED33FDEC33FC9C
:10053F00C933C910D7059BE99A4007EC9BFCE99A90
:10054F00F90FD8E0E4C9FAE4CCFB2275F010EF2FD5
:10055F00FFEE33FEED33FDCC33CCC833C810D707D5
:10056F009BEC9AE899400AED9BFDEC9AFCE899F810
:0E057F000FD5F0DAE4CDFBE4CCFAE4C8F922A3
:0E058D00C3E49FFFE49EFEE49DFDE49CFC227F
:10059B00EB9FF5F0EA9E42F0E99D42F0E89C45F0B6
:0105AB00222D
:1005AC00E8600FECC313FCED13FDEE13FEEF13FF2D
:0305BC00D8F12251
:1005BF00BB010DE58229F582E5833AF58302071F1A
:1005CF005007E92582F8020713BBFE07E92582F8D9
:1005DF0002072BE58229F582E5833AF58302073777
:1005EF00BB010DE58229F582E5833AF583020643C7
:1005FF005007E92582F802077DBBFE07E92582F83F
:04060F000207892233
:10061300BB010DE58229F582E5833AF58302075490
:100623005007E92582F8020747BBFE07E92582F850
:10063300020760E58229F582E5833AF58302076DB7
:0C064300ECF0A3EDF0A3EEF0A3EFF0222A
:10064F00A8828583F0D083D08212066612066612C6
:10065F000666120666E473E493A3C583C5F0C583EB
:10066F00C8C582C8F0A3C583C5F0C583C8C582C8F5
:01067F002258
:10068000BB010DE58229F582E5833AF58302064F29
:100690005007E92582F8020795BBFE07E92582F895
:0406A0000207AE227D
:1006A400BB010789828A830207D95005E9F802074A
:1006B400C7BBFE05E9F80207EB89828A830207FDBE
:1006C400BB011A89828A83D0F0D0E0F8D0E0F9D057
:1006D400E0FAD0E0FBE8C0E0C0F00207E25016E91F
:1006E400F8D083D082D0E0F9D0E0FAD0E0FBC08229
:1006F400C0830207D0BBFE16E9F8D083D082D0E0D5
:0F070400F9D0E0FAD0E0FBC082C0830207F422F4
:0C071300E6FC08E6FD08E6FE08E6FF2212
:0C071F00E0FCA3E0FDA3E0FEA3E0FF224D
:0C072B00E2FC08E2FD08E2FE08E2FF220A
:10073700E493FC740193FD740293FE740393FF2208
:0D074700E6FB08E6F908E6FA08E6CBF82222
:0C075400E0F8A3E0F9A3E0FAA3E0FB2228
:0D076000E2FB08E2F908E2FA08E2CBF82219
:10076D00E493F8740193F9740293FA740393FB22E2
:0C077D00ECF608EDF608EEF608EFF622A8
:0C078900ECF208EDF208EEF208EFF222AC
:10079500D083D082E493F608740193F6087402932B
:0907A500F608740393F674047362
:1007AE00D083D082E493F208740193F2087402931A
:0907BE00F208740393F274047351
:0907C700E6FB08E6FA08E6F92257
:0907D000EBF608EAF608E9F6224E
:0907D900E0FBA3E0FAA3E0F92221
:0907E200EBF0A3EAF0A3E9F02218
:0907EB00E2FB08E2FA08E2F9223F
:0907F400EBF208EAF208E9F22236
:0C07FD00E493FB740193FA740293F92258
:00000001FF
